S01800004763634170706C69636174696F6E31332E7372656327
S11300000C942A000C9434000C9434000C943400A6
S11300100C9434000C9434000C9434000C9434008C
S11300200C9434000C9434000C9434000C9434007C
S11300300C9434000C9434000C9434000C9434006C
S11300400C9434000C9434000C9434000C9434005C
S11300500C94340011241FBECFE5D4E0DEBFCDBF25
S11300600E9436000C944F000C9400008FEF84BB68
S113007084E085BB2FEF84E39CE0215080409040D6
S1130080E1F700C0000089E085BB2FEF84E39CE02A
S1130090215080409040E1F700C00000E9CFF8947F
S10500A0FFCF8C
S9030000FC
