:100000000C942A000C9434000C9434000C943400AA
:100010000C9434000C9434000C9434000C94340090
:100020000C9434000C9434000C9434000C94340080
:100030000C9434000C9434000C9434000C94340070
:100040000C9434000C9434000C9434000C94340060
:100050000C94340011241FBECFE5D4E0DEBFCDBF29
:100060000E9436000C945E000C9400008FB5826AEA
:100070008FBD8EB58B618EBD87E893E197BD86BD40
:1000800081B3806381BB81E690E09BBD8ABD2FEF89
:1000900084E39CE0215080409040E1F700C00000E4
:1000A0008CE391E09BBD8ABD2FEF84E39CE021505F
:1000B00080409040E1F700C00000E5CFF894FFCF0A
:00000001FF
