:100000000C942A000C943F000C943F000C943F0089
:100010000C943F000C943F000C943F000C943F0064
:100020000C943F000C943F000C943F000C943F0054
:100030000C943F000C943F000C943F000C943F0044
:100040000C943F000C943F000C943F000C943F0034
:100050000C943F0011241FBECFE5D4E0DEBFCDBF1E
:1000600010E0A0E6B0E0EAEEF2E002C005900D92EA
:10007000AE36B107D9F70E9441000C9473010C947D
:100080000000CF93DF93CDB7DEB72F970FB6F8946C
:10009000DEBF0FBECDBF8FEF8ABB60E875E280E0A8
:1000A00090E00E941F010E94D2000E941B0160E0AC
:1000B00080E00E94F000FE0131968FE0DF011D928A
:1000C0008A95E9F780E690E00E9405017E01BDE097
:1000D000EB0EF11C8E010F5F1F4F0E944D01F801C6
:1000E00081938F01EE15FF05C1F7FAE1FA95F1F75B
:1000F00000C061E080E00E94F000CE0101960E9405
:100100000501E8CF98B39F70282F207F922B98BBD2
:10011000C098C19A32E03A95F1F700C0C198E7EC77
:10012000F0E03197F1F700C0000028B32F70F0E144
:100130008F9FC0011124822B88BBC19A32E03A956F
:10014000F1F700C0C1988FE99FE00197F1F700C077
:100150000000089598B39F70282F207F922B98BBA2
:10016000C09AC19A32E03A95F1F700C0C198E7EC25
:10017000F0E03197F1F700C0000028B32F70F0E1F4
:100180008F9FC0011124822B88BBC19A32E03A951F
:10019000F1F700C0C1988FE99FE00197F1F700C027
:1001A000000008958FEF87BB2FEF81EE94E0215080
:1001B00080409040E1F700C0000083E30E9482008D
:1001C00082E30E94820088E20E9482008CE00E940A
:1001D000820081E00E94820082E80E9482000895ED
:1001E000CF93DF9300D0CDB7DEB790E8998390EC42
:1001F0009A83FE01E60FF11D9181890F0E94820012
:100200000F900F90DF91CF9108950F931F93CF938D
:10021000FC018081882359F08F01C0E00E94AA0070
:10022000CF5FF801EC0FF11D80818111F7CFCF91E5
:100230001F910F91089581E00E94820008952AB1D4
:1002400028612AB920B5266820BDDC01CB01880FC2
:10025000991FAA1FBB1F880F991FAA1FBB1F9C01B4
:10026000AD01220F331F441F551F220F331F441FA0
:10027000551F60E072E18AE790E00E9451018FEF24
:10028000820F89B9DA01C9010197A109B109892F42
:100290009A2FAB2FBB2780BD08955F9BFECF8CB1FB
:1002A0000895A1E21A2EAA1BBB1BFD010DC0AA1FB7
:1002B000BB1FEE1FFF1FA217B307E407F50720F0CF
:1002C000A21BB30BE40BF50B661F771F881F991F4A
:1002D0001A9469F760957095809590959B01AC0193
:0A02E000BD01CF010895F894FFCF8F
:0E02EA003120414853414E20524649443A00CB
:00000001FF
