:100000000C942A000C9447000C9447000C94470071
:100010000C9447000C9447000C9447000C94470044
:100020000C9447000C9447000C9447000C94470034
:100030000C9447000C9447000C9447000C94470024
:100040000C9447000C9447000C9447000C94470014
:100050000C94470011241FBECFE5D4E0DEBFCDBF16
:1000600010E0A0E6B0E0E0E4F2E002C005900D92FE
:10007000A039B107D9F720E0A0E9B0E001C01D9296
:10008000A039B207E1F70E94A8000C941E010C945D
:10009000000088BB8BB38F7D8BBB8BB38F7B8BBBFF
:1000A0008BB380688BBB82E08A95F1F700C08BB37D
:1000B0008F778BBB8FE697E10197F1F700C00000C7
:1000C000089588BB8BB380628BBB8BB38F7B8BBB5C
:1000D0008BB380688BBB82E08A95F1F700C08BB34D
:1000E0008F778BBB8FEC97E00197F1F700C0000092
:1000F00008958FEF8ABB87BB8FE39CE90197F1F7E7
:1001000000C0000088E30E9449008CE00E94490082
:1001100086E00E94490081E00E94490080E80E9438
:10012000490008950F931F93CF93DF938C01C0E094
:10013000D0E003C00E9461002196F801EC0FFD1F82
:1001400080818111F7CFDF91CF911F910F91089599
:100150008FB5826A8FBD8EB58B618EBD87E893E1C6
:1001600097BD86BD8FEF81BB14BA83B3817083BB0B
:10017000882309F18CE391E09BBD8ABD84E082BBBA
:100180000E94790085E890E00E94920080EC0E9435
:10019000490080E690E00E9492002FEF83EC99E006
:1001A000215080409040E1F700C0000081E690E0DF
:1001B0009BBD8ABDDACF83B3827083BB882309F1EC
:1001C0008CE391E09BBD8ABD84E082BB0E947900F4
:1001D00085E890E00E94920080EC0E9449008EE643
:1001E00090E00E9492002FEF83EC99E02150804034
:1001F0009040E1F700C0000081E690E09BBD8ABD21
:10020000B4CF88E082BB81E690E09BBD8ABD0E94AE
:1002100079008BE790E00E94920080EC0E944900F8
:1002200081E890E00E9492002FEF83EC99E021504A
:1002300080409040E1F700C0000097CFF894FFCFD6
:1002400057656C636F6D6520416873616E0057651B
:100250006C636F6D652046697A6100536F727279C5
:10026000004E6F7420417574686F72697A6564001E
:00000001FF
