S01A0000524649445F536C6176655F557064617465642E7372656365
S11300000C942A000C943F000C943F000C943F0085
S11300100C943F000C943F000C943F000C943F0060
S11300200C943F000C943F000C943F000C943F0050
S11300300C943F000C943F000C943F000C943F0040
S11300400C943F000C943F000C943F000C943F0030
S11300500C943F0011241FBECFE5D4E0DEBFCDBF1A
S113006010E0A0E6B0E0E2E0F2E002C005900D92FC
S1130070A437B107D9F70E94C1000C94FF000C9477
S1130080000087B38F7487BB87B3806487BB80E429
S11300908DB90895779BFECF8FB1089582BB85B348
S11300A0877E85BB85B3846085BB82E08A95F1F742
S11300B000C085B38B7F85BB8FE697E10197F1F78D
S11300C000C00000089582BB85B3877F85BB85B3DC
S11300D0846185BB82E08A95F1F700C085B38B7F8C
S11300E085BB8FEC97E00197F1F700C000000895FD
S11300F084B38C6184BB8FEF81BB8FE39CE9019750
S1130100F1F700C0000088E30E944E008CE00E94DA
S11301104E0086E00E944E0081E00E944E0080E87E
S11301200E944E0008950F931F93CF93DF938C0189
S1130130C0E0D0E003C00E9463002196F801EC0FF8
S1130140FD1F80818111F7CFDF91CF911F910F9116
S11301500895CF93DF93EA01813031F4862F8F70B5
S113016080680E944E0007C0823029F4862F8F7069
S1130170806C0E944E00CE010E949300DF91CF91CB
S11301800895CF93DF93CDB7DEB72F970FB6F894CA
S1130190DEBF0FBECDBFFE0131968FE0DF011D92A1
S11301A08A95E9F70E9478000E94410040E650E0F9
S11301B060E081E00E94A9004DE650E060E082E04A
S11301C00E94A90000E010E00BC00E944A00E1E098
S11301D0F0E0EC0FFD1FE00FF11F80830F5F1F4F56
S11301E00C30110594F3BAE1BA95F1F700C0AE01F1
S11301F04F5F5F4F60E082E00E94A900E3CFF89474
S1050200FFCF2A
S1130202536C617665204465766963650041687361
S1070212616E000015
S9030000FC
